:040000003EEF05F0DA
:1005000000010000000A00000064000000E8030091
:100510000010270000A086010040420F008096983E
:100520000000E1F50500CA9A3B436F6E7665727371
:100530006F72204144432000414E30203D20002571
:0B0540006C752E25362E366C75000001
:10054C000E0EC16EC08EC198C19AC090C082C0847C
:10055C00C086C098C09AC280C294C296C298C29AF1
:10056C0058EC03F0000E026E140E016E59EC05F0FF
:10057C00010E046E010E5BEC04F0290E046E050EE8
:10058C00056EB5EC04F0010E046E020E5BEC04F08B
:10059C00380E046E050E056EB5EC04F00C0EA7ECCF
:1005AC0003F00B0E026EB80E016E59EC05F0C28210
:1005BC00C2B2FED7C450236E226AC3502224246ECA
:1005CC00000E2320256E010E046E020E5BEC04F06F
:1005DC00380E046E050E056EB5EC04F0060E046EB6
:1005EC00020E5BEC04F024C019F025C01AF020ECCC
:1005FC0005F0000E026E640E016E59EC05F0D7D7B3
:10060C000AC00EF00BC00FF00EC001F00FC002F0CC
:10061C000CC003F00DC004F08CEC04F001C00EF023
:10062C0002C00FF0084A092A0E500F10D8A4ECD7BC
:10063C0008C0D9FF09C0DAFF000EDF6E0806D8A08B
:10064C0009060AC001F00BC002F00CC003F00DC08B
:10065C0004F0FFEC04F00150106E0AC001F00BC066
:10066C0002F00CC003F00DC004F08CEC04F001C0DF
:10067C000AF002C00BF0090E106402D0070E10260F
:10068C00300E102608C0D9FF09C0DAFF10C0DFFFFA
:10069C000806D8A009060A500B10D8A4D2D7084ACD
:1006AC00092A12009594959295909598959A959CF7
:1006BC00959E839483928390839E839C838A838864
:1006CC00EA0E046EC30EE82EFED7042EFCD700F003
:1006DC0083806BEC05F083906BEC05F04E0E046E92
:1006EC00EB0EE82EFED7042EFCD700F083806BECCB
:1006FC0005F083906BEC05F04E0E046EEB0EE82EBD
:10070C00FED7042EFCD700F083806BEC05F08390B1
:10071C006BEC05F0839E839C838A839883806BECBF
:10072C0005F083906BEC05F0280EA7EC03F0060E99
:10073C00A7EC03F00E0EA7EC03F0010EA7EC03F0F0
:10074C001200036E83948392839003A802D0838853
:10075C0001D0839803AA02D0838A01D0839A03AC78
:10076C0002D0838C01D0839C03AE02D0838E01D047
:10077C00839E83806BEC05F083906BEC05F003A0FB
:10078C0002D0838801D0839803A202D0838A01D03F
:10079C00839A03A402D0838C01D0839C03A602D03D
:1007AC00838E01D0839E83806BEC05F083906BEC81
:1007BC0005F00304D8B408D0020E0318D8B404D042
:1007CC00030E0318D8A412006BEC05F01200036E94
:1007DC0083948382839003A802D0838801D083986A
:1007EC0003AA02D0838A01D0839A03AC02D0838CF3
:1007FC0001D0839C03AE02D0838E01D0839E838074
:10080C006BEC05F083906BEC05F003A002D08388B1
:10081C0001D0839803A202D0838A01D0839A03A4C7
:10082C0002D0838C01D0839C03A602D0838E01D08E
:10083C00839E83806BEC05F083906BEC05F01200CB
:10084C00036E839483928390838E03A802D0838853
:10085C0001D0839803AA02D0838A01D0839A03AC77
:10086C0002D0838C01D0839C83806BEC05F0839049
:10087C006BEC05F003A002D0838801D0839803A20F
:10088C0002D0838A01D0839A03A402D0838C01D036
:10089C00839C03A602D0838E01D0839E83806BEC55
:1008AC0005F083906BEC05F01200056E000E066EE1
:1008BC0004061ED004C006F0065026EC04F012000C
:1008CC000450400F066E065026EC04F01200045043
:1008DC00140F066E065026EC04F012000450540F50
:1008EC00066E065026EC04F01200000E066E120086
:1008FC000550010AD8B4DED7030AD8B4E1D7010AEF
:10090C00D8B4E5D7070AD8B4E9D7EFD7000E066EEE
:10091C00000E056E03500410D8B41CD0010E076EE7
:10092C0004D0D89003360436072A04AEFAD7D890F0
:10093C00053606360350015C04500258D8A005D089
:10094C000350015E0450025A0580D89004320332E1
:10095C00072EEDD705C001F006C002F0120014D02E
:10096C0004C0F6FF05C0F7FFF86A040EF76403D065
:10097C000800F55005D0F6CFE9FFF7CFEAFFEF50AE
:10098C00EDEC03F0044A052A04C0F6FF05C0F7FF9E
:10099C00F86A040EF76403D00800F55005D0F6CFC2
:1009AC00E9FFF7CFEAFFEF500009D8B41200D8D70F
:1009BC0011C017F012C018F014AE0CD011C0D9FF32
:1009CC0012C0DAFF2D0EDF6E114A122A136C141EA0
:1009DC00D8B0142A11C008F012C009F013C00AF0E4
:1009EC0014C00BF015C00CF016C00DF006EC03F0A3
:1009FC00120003500410D8B418D0010E056E04D0A8
:100A0C00D89003360436052A04AEFAD70350015C9D
:100A1C0004500258D8A004D00350015E0450025A6E
:100A2C00D89004320332052EF1D701C001F002C078
:100A3C0002F0120020EE37F010EE1BF0060EDBCFAA
:100A4C00E3FFE806FCE21B0E116E000E126E19C0DD
:100A5C0013F01AC014F0000E166E0A0E156EDEECB2
:100A6C0004F01B0E046E000E056EB5EC04F01200C3
:100A7C00FA0EF66E0A0EF76E000EF86E00EE37F0F8
:100A8C0010EE07F00900F5CFEEFFE550E150FAE16A
:100A9C0000EE24F0130EEE6AE806FDE1000EF86E8F
:100AAC000001A6EF02F009D0100E036E940EE82E92
:100ABC00FED7032EFCD700F000F00106D8A00206EA
:100ACC0001500210D8B41200EFD7000E016E1D0EAB
:100ADC00016401D0120000F0000E026E1D0E0264C3
:100AEC0001D003D000F0022AF9D7012AF0D7303018
:050AFC00303030300035
:020000040020DA
:08000000FFFFFFFFFFFFFFFF00
:020000040030CA
:0E00000000051F1FFF8285FF034003600340C1
:00000001FF
